{"abi":[{"type":"constructor","inputs":[],"stateMutability":"nonpayable"},{"type":"function","name":"UPGRADE_INTERFACE_VERSION","inputs":[],"outputs":[{"name":"","type":"string","internalType":"string"}],"stateMutability":"view"},{"type":"function","name":"deposit","inputs":[{"name":"amount","type":"uint256","internalType":"uint256"}],"outputs":[],"stateMutability":"nonpayable"},{"type":"function","name":"getBalance","inputs":[],"outputs":[{"name":"","type":"uint256","internalType":"uint256"}],"stateMutability":"view"},{"type":"function","name":"getChainPosition","inputs":[],"outputs":[{"name":"","type":"uint256","internalType":"uint256"}],"stateMutability":"view"},{"type":"function","name":"getCurrentCommitment","inputs":[],"outputs":[{"name":"","type":"bytes32","internalType":"bytes32"}],"stateMutability":"view"},{"type":"function","name":"getOwner","inputs":[],"outputs":[{"name":"","type":"address","internalType":"address"}],"stateMutability":"view"},{"type":"function","name":"initialize","inputs":[{"name":"initialCommitment","type":"bytes32","internalType":"bytes32"},{"name":"initialOwner","type":"address","internalType":"address"}],"outputs":[],"stateMutability":"nonpayable"},{"type":"function","name":"proxiableUUID","inputs":[],"outputs":[{"name":"","type":"bytes32","internalType":"bytes32"}],"stateMutability":"view"},{"type":"function","name":"upgradeToAndCall","inputs":[{"name":"newImplementation","type":"address","internalType":"address"},{"name":"data","type":"bytes","internalType":"bytes"}],"outputs":[],"stateMutability":"payable"},{"type":"function","name":"upgradeToAndCallAuth","inputs":[{"name":"newImplementation","type":"address","internalType":"address"},{"name":"data","type":"bytes","internalType":"bytes"},{"name":"preimage","type":"bytes32","internalType":"bytes32"}],"outputs":[],"stateMutability":"payable"},{"type":"function","name":"version","inputs":[],"outputs":[{"name":"","type":"uint256","internalType":"uint256"}],"stateMutability":"pure"},{"type":"event","name":"AuthSuccess","inputs":[{"name":"chainPosition","type":"uint256","indexed":true,"internalType":"uint256"},{"name":"newImplementation","type":"address","indexed":true,"internalType":"address"}],"anonymous":false},{"type":"event","name":"Initialized","inputs":[{"name":"version","type":"uint64","indexed":false,"internalType":"uint64"}],"anonymous":false},{"type":"event","name":"Upgraded","inputs":[{"name":"implementation","type":"address","indexed":true,"internalType":"address"}],"anonymous":false},{"type":"error","name":"AddressEmptyCode","inputs":[{"name":"target","type":"address","internalType":"address"}]},{"type":"error","name":"ERC1967InvalidImplementation","inputs":[{"name":"implementation","type":"address","internalType":"address"}]},{"type":"error","name":"ERC1967NonPayable","inputs":[]},{"type":"error","name":"FailedCall","inputs":[]},{"type":"error","name":"InvalidChainPreimage","inputs":[]},{"type":"error","name":"InvalidGasPriceConfig","inputs":[]},{"type":"error","name":"InvalidHMACBinding","inputs":[]},{"type":"error","name":"InvalidInitialization","inputs":[]},{"type":"error","name":"NotInitializing","inputs":[]},{"type":"error","name":"UUPSUnauthorizedCallContext","inputs":[]},{"type":"error","name":"UUPSUnsupportedProxiableUUID","inputs":[{"name":"slot","type":"bytes32","internalType":"bytes32"}]},{"type":"error","name":"UnauthenticatedUpgradeBlocked","inputs":[]}],"bytecode":{"object":"0x60a060405230608052348015610013575f80fd5b5061001c610021565b6100d3565b7ff0c57e16840df040f15088dc2f81fe391c3923bec73e23a9662efc9c229c6a00805468010000000000000000900460ff16156100715760405163f92ee8a960e01b815260040160405180910390fd5b80546001600160401b03908116146100d05780546001600160401b0319166001600160401b0390811782556040519081527fc7f505b2f371ae2175ee4913f4499e1f2633a7b5936321eed1cdaeb6115181d29060200160405180910390a15b50565b6080516111256100f95f395f8181610679015281816106a2015261082701526111255ff3fe60806040526004361061009a575f3560e01c80635ca78bcd116100625780635ca78bcd146101155780636910e33414610148578063893d20e814610167578063ad3cb1cc146101ad578063b6b55f25146101ea578063c9b1f5fc14610209575f80fd5b806312065fe01461009e5780634f1ef286146100c557806352d1902d146100da57806354fd4d50146100ee5780635aa40b6b14610101575b5f80fd5b3480156100a9575f80fd5b506100b261021c565b6040519081526020015b60405180910390f35b6100d86100d3366004610e1e565b610245565b005b3480156100e5575f80fd5b506100b2610264565b3480156100f9575f80fd5b5060016100b2565b34801561010c575f80fd5b506100b261027f565b348015610120575f80fd5b507f458c3c2e0776a3130c85b57ced762bdfbc81bf8b1a5065ff9ffdad7a99148601546100b2565b348015610153575f80fd5b506100d8610162366004610eda565b6102a6565b348015610172575f80fd5b507f658c6c8f81bdf1baea5d00b69128624d91bde6798eab230dfa206d7c6547e601546040516001600160a01b0390911681526020016100bc565b3480156101b8575f80fd5b506101dd604051806040016040528060058152602001640352e302e360dc1b81525081565b6040516100bc9190610f26565b3480156101f5575f80fd5b506100d8610204366004610f58565b6103fd565b6100d8610217366004610f6f565b61043a565b5f7f658c6c8f81bdf1baea5d00b69128624d91bde6798eab230dfa206d7c6547e6005b54919050565b61024d61066e565b61025682610714565b6102608282610756565b5050565b5f61026d61081c565b505f805160206110d083398151915290565b5f7f458c3c2e0776a3130c85b57ced762bdfbc81bf8b1a5065ff9ffdad7a9914860061023f565b5f6102af610865565b805490915060ff600160401b820416159067ffffffffffffffff165f811580156102d65750825b90505f8267ffffffffffffffff1660011480156102f25750303b155b905081158015610300575080155b1561031e5760405163f92ee8a960e01b815260040160405180910390fd5b845467ffffffffffffffff19166001178555831561034857845460ff60401b1916600160401b1785555b6103518761088f565b7f658c6c8f81bdf1baea5d00b69128624d91bde6798eab230dfa206d7c6547e60180546001600160a01b0319166001600160a01b0388161790555f7f658c6c8f81bdf1baea5d00b69128624d91bde6798eab230dfa206d7c6547e6005583156103f457845460ff60401b19168555604051600181527fc7f505b2f371ae2175ee4913f4499e1f2633a7b5936321eed1cdaeb6115181d29060200160405180910390a15b50505050505050565b7f658c6c8f81bdf1baea5d00b69128624d91bde6798eab230dfa206d7c6547e6008054829082905f90610431908490611005565b90915550505050565b7f458c3c2e0776a3130c85b57ced762bdfbc81bf8b1a5065ff9ffdad7a99148600805460408051602081018590526002910160408051601f198184030181529082905261048691611018565b602060405180830381855afa1580156104a1573d5f803e3d5ffd5b5050506040513d601f19601f820116820180604052508101906104c49190611033565b146104e257604051631c2ae9cd60e31b815260040160405180910390fd5b5f8160010154863387876040516104fa92919061104a565b604051908190038120610532949392916020019384526001600160a01b03928316602085015291166040830152606082015260800190565b60408051601f198184030181528282526020830186905292505f916105679101604051602081830303815290604052836108de565b905080483a101561058b57604051636988e22760e11b815260040160405180910390fd5b5f610596483a611059565b90508061ffff808216908416146105c057604051630fc7c3b560e01b815260040160405180910390fd5b600180870154888855906105d5908290611005565b60018801556040516001600160a01b038c169082907f803105f55054d0c14072ed58207771670d15113c9d8f5e75bcf6605d17311a5f905f90a36106196001610bdb565b6106588b8b8b8080601f0160208091040260200160405190810160405280939291908181526020018383808284375f9201919091525061024592505050565b6106615f610bdb565b5050505050505050505050565b306001600160a01b037f00000000000000000000000000000000000000000000000000000000000000001614806106f457507f00000000000000000000000000000000000000000000000000000000000000006001600160a01b03166106e85f805160206110d0833981519152546001600160a01b031690565b6001600160a01b031614155b156107125760405163703e46dd60e11b815260040160405180910390fd5b565b7fecfcdcdcfba90e8386d807953ae4b71b24d7ecec12a2e337534b8340eaeeebdf5c61075357604051637143caed60e01b815260040160405180910390fd5b50565b816001600160a01b03166352d1902d6040518163ffffffff1660e01b8152600401602060405180830381865afa9250505080156107b0575060408051601f3d908101601f191682019092526107ad91810190611033565b60015b6107dd57604051634c9c8ce360e01b81526001600160a01b03831660048201526024015b60405180910390fd5b5f805160206110d0833981519152811461080d57604051632a87526960e21b8152600481018290526024016107d4565b6108178383610c03565b505050565b306001600160a01b037f000000000000000000000000000000000000000000000000000000000000000016146107125760405163703e46dd60e11b815260040160405180910390fd5b5f807ff0c57e16840df040f15088dc2f81fe391c3923bec73e23a9662efc9c229c6a005b92915050565b610897610c58565b7f458c3c2e0776a3130c85b57ced762bdfbc81bf8b1a5065ff9ffdad7a99148600555f7f458c3c2e0776a3130c85b57ced762bdfbc81bf8b1a5065ff9ffdad7a9914860155565b604080518181526060810182525f918291906020820181803683370190505090506040845111156109b2575f60028560405161091a9190611018565b602060405180830381855afa158015610935573d5f803e3d5ffd5b5050506040513d601f19601f820116820180604052508101906109589190611033565b90505f5b60208110156109ab578181602081106109775761097761106c565b1a60f81b83828151811061098d5761098d61106c565b60200101906001600160f81b03191690815f1a90535060010161095c565b5050610a0c565b5f5b8451811015610a0a578481815181106109cf576109cf61106c565b602001015160f81c60f81b8282815181106109ec576109ec61106c565b60200101906001600160f81b03191690815f1a9053506001016109b4565b505b604080518181526060810182525f916020820181803683375050604080518181526060810182529293505f9291506020820181803683370190505090505f5b6040811015610af257603660f81b848281518110610a6b57610a6b61106c565b602001015160f81c60f81b18838281518110610a8957610a8961106c565b60200101906001600160f81b03191690815f1a905350605c60f81b848281518110610ab657610ab661106c565b602001015160f81c60f81b18828281518110610ad457610ad461106c565b60200101906001600160f81b03191690815f1a905350600101610a4b565b505f60028387604051602001610b09929190611080565b60408051601f1981840301815290829052610b2391611018565b602060405180830381855afa158015610b3e573d5f803e3d5ffd5b5050506040513d601f19601f82011682018060405250810190610b619190611033565b905060028282604051602001610b789291906110ae565b60408051601f1981840301815290829052610b9291611018565b602060405180830381855afa158015610bad573d5f803e3d5ffd5b5050506040513d601f19601f82011682018060405250810190610bd09190611033565b979650505050505050565b7fecfcdcdcfba90e8386d807953ae4b71b24d7ecec12a2e337534b8340eaeeebdf81815d5050565b610c0c82610c7d565b6040516001600160a01b038316907fbc7cd75a20ee27fd9adebab32041f755214dbc6bffa90cc0225b39da2e5c2d3b905f90a2805115610c50576108178282610ce0565b610260610d80565b610c60610d9f565b61071257604051631afcd79f60e31b815260040160405180910390fd5b806001600160a01b03163b5f03610cb257604051634c9c8ce360e01b81526001600160a01b03821660048201526024016107d4565b5f805160206110d083398151915280546001600160a01b0319166001600160a01b0392909216919091179055565b60605f610ced8484610db8565b9050808015610d0e57505f3d1180610d0e57505f846001600160a01b03163b115b15610d2357610d1b610dcb565b915050610889565b8015610d4d57604051639996b31560e01b81526001600160a01b03851660048201526024016107d4565b3d15610d6057610d5b610de4565b610d79565b60405163d6bda27560e01b815260040160405180910390fd5b5092915050565b34156107125760405163b398979f60e01b815260040160405180910390fd5b5f610da8610865565b54600160401b900460ff16919050565b5f805f835160208501865af49392505050565b6040513d81523d5f602083013e3d602001810160405290565b6040513d5f823e3d81fd5b80356001600160a01b0381168114610e05575f80fd5b919050565b634e487b7160e01b5f52604160045260245ffd5b5f8060408385031215610e2f575f80fd5b610e3883610def565b9150602083013567ffffffffffffffff80821115610e54575f80fd5b818501915085601f830112610e67575f80fd5b813581811115610e7957610e79610e0a565b604051601f8201601f19908116603f01168101908382118183101715610ea157610ea1610e0a565b81604052828152886020848701011115610eb9575f80fd5b826020860160208301375f6020848301015280955050505050509250929050565b5f8060408385031215610eeb575f80fd5b82359150610efb60208401610def565b90509250929050565b5f5b83811015610f1e578181015183820152602001610f06565b50505f910152565b602081525f8251806020840152610f44816040850160208701610f04565b601f01601f19169190910160400192915050565b5f60208284031215610f68575f80fd5b5035919050565b5f805f8060608587031215610f82575f80fd5b610f8b85610def565b9350602085013567ffffffffffffffff80821115610fa7575f80fd5b818701915087601f830112610fba575f80fd5b813581811115610fc8575f80fd5b886020828501011115610fd9575f80fd5b95986020929092019750949560400135945092505050565b634e487b7160e01b5f52601160045260245ffd5b8082018082111561088957610889610ff1565b5f8251611029818460208701610f04565b9190910192915050565b5f60208284031215611043575f80fd5b5051919050565b818382375f9101908152919050565b8181038181111561088957610889610ff1565b634e487b7160e01b5f52603260045260245ffd5b5f8351611091818460208801610f04565b8351908301906110a5818360208801610f04565b01949350505050565b5f83516110bf818460208801610f04565b919091019182525060200191905056fe360894a13ba1a3210667c828492db98dca3e2076cc3735a920a3ca505d382bbca2646970667358221220c1fdd00a65c8455ca6a926ca98d337726674c52f7d6785bb85ec88793b8c402264736f6c63430008180033","linkReferences":{}},"methodIdentifiers":{"UPGRADE_INTERFACE_VERSION()":"ad3cb1cc","deposit(uint256)":"b6b55f25","getBalance()":"12065fe0","getChainPosition()":"5ca78bcd","getCurrentCommitment()":"5aa40b6b","getOwner()":"893d20e8","initialize(bytes32,address)":"6910e334","proxiableUUID()":"52d1902d","upgradeToAndCall(address,bytes)":"4f1ef286","upgradeToAndCallAuth(address,bytes,bytes32)":"c9b1f5fc","version()":"54fd4d50"},"id":47}