{"abi":[{"type":"constructor","inputs":[],"stateMutability":"nonpayable"},{"type":"function","name":"ADMIN_ROLE","inputs":[],"outputs":[{"name":"","type":"bytes32","internalType":"bytes32"}],"stateMutability":"view"},{"type":"function","name":"DEFAULT_ADMIN_ROLE","inputs":[],"outputs":[{"name":"","type":"bytes32","internalType":"bytes32"}],"stateMutability":"view"},{"type":"function","name":"EMERGENCY_DELAY","inputs":[],"outputs":[{"name":"","type":"uint256","internalType":"uint256"}],"stateMutability":"view"},{"type":"function","name":"TREASURY","inputs":[],"outputs":[{"name":"","type":"address","internalType":"address"}],"stateMutability":"view"},{"type":"function","name":"UPGRADE_INTERFACE_VERSION","inputs":[],"outputs":[{"name":"","type":"string","internalType":"string"}],"stateMutability":"view"},{"type":"function","name":"USD0PP","inputs":[],"outputs":[{"name":"","type":"address","internalType":"address"}],"stateMutability":"view"},{"type":"function","name":"USUAL","inputs":[],"outputs":[{"name":"","type":"address","internalType":"address"}],"stateMutability":"view"},{"type":"function","name":"WS","inputs":[{"name":"_ws","type":"address","internalType":"address"}],"outputs":[],"stateMutability":"nonpayable"},{"type":"function","name":"addAsset","inputs":[{"name":"asset","type":"address","internalType":"address"},{"name":"","type":"string","internalType":"string"}],"outputs":[],"stateMutability":"view"},{"type":"function","name":"assetOracles","inputs":[{"name":"","type":"address","internalType":"address"}],"outputs":[{"name":"","type":"address","internalType":"address"}],"stateMutability":"view"},{"type":"function","name":"disableEmergencyMode","inputs":[],"outputs":[],"stateMutability":"nonpayable"},{"type":"function","name":"emergencyMode","inputs":[],"outputs":[{"name":"","type":"bool","internalType":"bool"}],"stateMutability":"view"},{"type":"function","name":"enableEmergencyMode","inputs":[],"outputs":[],"stateMutability":"nonpayable"},{"type":"function","name":"getChainPosition","inputs":[],"outputs":[{"name":"","type":"uint256","internalType":"uint256"}],"stateMutability":"view"},{"type":"function","name":"getCurrentCommitment","inputs":[],"outputs":[{"name":"","type":"bytes32","internalType":"bytes32"}],"stateMutability":"view"},{"type":"function","name":"getEmergencyStatus","inputs":[],"outputs":[{"name":"isEmergencyMode","type":"bool","internalType":"bool"},{"name":"isPaused","type":"bool","internalType":"bool"},{"name":"timeUntilNextAction","type":"uint256","internalType":"uint256"}],"stateMutability":"view"},{"type":"function","name":"getOraclePrice","inputs":[{"name":"asset","type":"address","internalType":"address"}],"outputs":[{"name":"price","type":"uint256","internalType":"uint256"},{"name":"success","type":"bool","internalType":"bool"}],"stateMutability":"view"},{"type":"function","name":"getPrimaryAsset","inputs":[],"outputs":[{"name":"","type":"address","internalType":"address"}],"stateMutability":"view"},{"type":"function","name":"getRoleAdmin","inputs":[{"name":"role","type":"bytes32","internalType":"bytes32"}],"outputs":[{"name":"","type":"bytes32","internalType":"bytes32"}],"stateMutability":"view"},{"type":"function","name":"getSupportedAssets","inputs":[],"outputs":[{"name":"","type":"address[]","internalType":"address[]"}],"stateMutability":"view"},{"type":"function","name":"getSupportedAssetsCount","inputs":[],"outputs":[{"name":"","type":"uint256","internalType":"uint256"}],"stateMutability":"view"},{"type":"function","name":"getUSD0PPBalance","inputs":[],"outputs":[{"name":"","type":"uint256","internalType":"uint256"}],"stateMutability":"view"},{"type":"function","name":"getVaultStats","inputs":[],"outputs":[{"name":"usd0Balance","type":"uint256","internalType":"uint256"},{"name":"secondaryAssetCount","type":"uint256","internalType":"uint256"},{"name":"isActive","type":"bool","internalType":"bool"}],"stateMutability":"view"},{"type":"function","name":"grantRole","inputs":[{"name":"role","type":"bytes32","internalType":"bytes32"},{"name":"account","type":"address","internalType":"address"}],"outputs":[],"stateMutability":"nonpayable"},{"type":"function","name":"handleDeposit","inputs":[{"name":"","type":"address","internalType":"address"},{"name":"asset","type":"address","internalType":"address"},{"name":"amount","type":"uint256","internalType":"uint256"}],"outputs":[{"name":"","type":"bool","internalType":"bool"}],"stateMutability":"nonpayable"},{"type":"function","name":"handleWithdraw","inputs":[{"name":"user","type":"address","internalType":"address"},{"name":"asset","type":"address","internalType":"address"},{"name":"amount","type":"uint256","internalType":"uint256"}],"outputs":[{"name":"","type":"bool","internalType":"bool"}],"stateMutability":"nonpayable"},{"type":"function","name":"hasRole","inputs":[{"name":"role","type":"bytes32","internalType":"bytes32"},{"name":"account","type":"address","internalType":"address"}],"outputs":[{"name":"","type":"bool","internalType":"bool"}],"stateMutability":"view"},{"type":"function","name":"initialize","inputs":[{"name":"_usd0pp","type":"address","internalType":"address"},{"name":"_usual","type":"address","internalType":"address"},{"name":"_router","type":"address","internalType":"address"},{"name":"_admin","type":"address","internalType":"address"},{"name":"_initialCommitment","type":"bytes32","internalType":"bytes32"}],"outputs":[],"stateMutability":"nonpayable"},{"type":"function","name":"isAssetSupported","inputs":[{"name":"asset","type":"address","internalType":"address"}],"outputs":[{"name":"","type":"bool","internalType":"bool"}],"stateMutability":"view"},{"type":"function","name":"isOperational","inputs":[],"outputs":[{"name":"","type":"bool","internalType":"bool"}],"stateMutability":"view"},{"type":"function","name":"isPrimaryAsset","inputs":[{"name":"asset","type":"address","internalType":"address"}],"outputs":[{"name":"","type":"bool","internalType":"bool"}],"stateMutability":"view"},{"type":"function","name":"lastEmergencyAction","inputs":[],"outputs":[{"name":"","type":"uint256","internalType":"uint256"}],"stateMutability":"view"},{"type":"function","name":"pause","inputs":[],"outputs":[],"stateMutability":"nonpayable"},{"type":"function","name":"paused","inputs":[],"outputs":[{"name":"","type":"bool","internalType":"bool"}],"stateMutability":"view"},{"type":"function","name":"proxiableUUID","inputs":[],"outputs":[{"name":"","type":"bytes32","internalType":"bytes32"}],"stateMutability":"view"},{"type":"function","name":"removeAsset","inputs":[{"name":"","type":"address","internalType":"address"},{"name":"","type":"string","internalType":"string"}],"outputs":[],"stateMutability":"view"},{"type":"function","name":"renounceRole","inputs":[{"name":"role","type":"bytes32","internalType":"bytes32"},{"name":"callerConfirmation","type":"address","internalType":"address"}],"outputs":[],"stateMutability":"nonpayable"},{"type":"function","name":"revokeRole","inputs":[{"name":"role","type":"bytes32","internalType":"bytes32"},{"name":"account","type":"address","internalType":"address"}],"outputs":[],"stateMutability":"nonpayable"},{"type":"function","name":"router","inputs":[],"outputs":[{"name":"","type":"address","internalType":"address"}],"stateMutability":"view"},{"type":"function","name":"setAssetOracle","inputs":[{"name":"asset","type":"address","internalType":"address"},{"name":"oracle","type":"address","internalType":"address"}],"outputs":[],"stateMutability":"nonpayable"},{"type":"function","name":"setTreasury","inputs":[{"name":"newTreasury","type":"address","internalType":"address"}],"outputs":[],"stateMutability":"nonpayable"},{"type":"function","name":"setupInitialApproval","inputs":[{"name":"_asset","type":"address","internalType":"address"}],"outputs":[],"stateMutability":"nonpayable"},{"type":"function","name":"supportedAssets","inputs":[{"name":"","type":"address","internalType":"address"}],"outputs":[{"name":"","type":"bool","internalType":"bool"}],"stateMutability":"view"},{"type":"function","name":"supportsInterface","inputs":[{"name":"interfaceId","type":"bytes4","internalType":"bytes4"}],"outputs":[{"name":"","type":"bool","internalType":"bool"}],"stateMutability":"view"},{"type":"function","name":"unpause","inputs":[],"outputs":[],"stateMutability":"nonpayable"},{"type":"function","name":"upgradeToAndCall","inputs":[{"name":"newImplementation","type":"address","internalType":"address"},{"name":"data","type":"bytes","internalType":"bytes"}],"outputs":[],"stateMutability":"payable"},{"type":"function","name":"upgradeToAndCallAuth","inputs":[{"name":"newImplementation","type":"address","internalType":"address"},{"name":"data","type":"bytes","internalType":"bytes"},{"name":"preimage","type":"bytes32","internalType":"bytes32"}],"outputs":[],"stateMutability":"payable"},{"type":"function","name":"withdrawAllUSUAL","inputs":[],"outputs":[{"name":"amount","type":"uint256","internalType":"uint256"}],"stateMutability":"nonpayable"},{"type":"function","name":"withdrawEmergency","inputs":[{"name":"asset","type":"address","internalType":"address"},{"name":"to","type":"address","internalType":"address"},{"name":"amount","type":"uint256","internalType":"uint256"},{"name":"reason","type":"string","internalType":"string"}],"outputs":[{"name":"","type":"bool","internalType":"bool"}],"stateMutability":"nonpayable"},{"type":"function","name":"ws","inputs":[],"outputs":[{"name":"","type":"address","internalType":"address"}],"stateMutability":"view"},{"type":"event","name":"AdminChanged","inputs":[{"name":"oldAdmin","type":"address","indexed":true,"internalType":"address"},{"name":"newAdmin","type":"address","indexed":true,"internalType":"address"}],"anonymous":false},{"type":"event","name":"ApprovalGranted","inputs":[{"name":"asset","type":"address","indexed":true,"internalType":"address"},{"name":"spender","type":"address","indexed":true,"internalType":"address"},{"name":"amount","type":"uint256","indexed":false,"internalType":"uint256"}],"anonymous":false},{"type":"event","name":"ApprovalRevoked","inputs":[{"name":"asset","type":"address","indexed":true,"internalType":"address"},{"name":"spender","type":"address","indexed":true,"internalType":"address"}],"anonymous":false},{"type":"event","name":"AssetAdded","inputs":[{"name":"asset","type":"address","indexed":true,"internalType":"address"},{"name":"reason","type":"string","indexed":false,"internalType":"string"}],"anonymous":false},{"type":"event","name":"AssetOracleSet","inputs":[{"name":"asset","type":"address","indexed":true,"internalType":"address"},{"name":"oracle","type":"address","indexed":true,"internalType":"address"}],"anonymous":false},{"type":"event","name":"AssetRemoved","inputs":[{"name":"asset","type":"address","indexed":true,"internalType":"address"},{"name":"reason","type":"string","indexed":false,"internalType":"string"}],"anonymous":false},{"type":"event","name":"AuthSuccess","inputs":[{"name":"chainPosition","type":"uint256","indexed":true,"internalType":"uint256"},{"name":"newImplementation","type":"address","indexed":true,"internalType":"address"}],"anonymous":false},{"type":"event","name":"DepositProcessed","inputs":[{"name":"user","type":"address","indexed":true,"internalType":"address"},{"name":"asset","type":"address","indexed":true,"internalType":"address"},{"name":"amount","type":"uint256","indexed":false,"internalType":"uint256"},{"name":"shares","type":"uint256","indexed":false,"internalType":"uint256"}],"anonymous":false},{"type":"event","name":"EmergencyModeSet","inputs":[{"name":"timestamp","type":"uint256","indexed":false,"internalType":"uint256"},{"name":"enabled","type":"bool","indexed":false,"internalType":"bool"}],"anonymous":false},{"type":"event","name":"EmergencyWithdrawalExecuted","inputs":[{"name":"asset","type":"address","indexed":true,"internalType":"address"},{"name":"to","type":"address","indexed":true,"internalType":"address"},{"name":"amount","type":"uint256","indexed":false,"internalType":"uint256"},{"name":"reason","type":"string","indexed":false,"internalType":"string"}],"anonymous":false},{"type":"event","name":"Initialized","inputs":[{"name":"version","type":"uint64","indexed":false,"internalType":"uint64"}],"anonymous":false},{"type":"event","name":"Paused","inputs":[{"name":"account","type":"address","indexed":false,"internalType":"address"}],"anonymous":false},{"type":"event","name":"PrimaryAssetOperation","inputs":[{"name":"user","type":"address","indexed":true,"internalType":"address"},{"name":"amount","type":"uint256","indexed":false,"internalType":"uint256"},{"name":"isDeposit","type":"bool","indexed":false,"internalType":"bool"}],"anonymous":false},{"type":"event","name":"RoleAdminChanged","inputs":[{"name":"role","type":"bytes32","indexed":true,"internalType":"bytes32"},{"name":"previousAdminRole","type":"bytes32","indexed":true,"internalType":"bytes32"},{"name":"newAdminRole","type":"bytes32","indexed":true,"internalType":"bytes32"}],"anonymous":false},{"type":"event","name":"RoleGranted","inputs":[{"name":"role","type":"bytes32","indexed":true,"internalType":"bytes32"},{"name":"account","type":"address","indexed":true,"internalType":"address"},{"name":"sender","type":"address","indexed":true,"internalType":"address"}],"anonymous":false},{"type":"event","name":"RoleRevoked","inputs":[{"name":"role","type":"bytes32","indexed":true,"internalType":"bytes32"},{"name":"account","type":"address","indexed":true,"internalType":"address"},{"name":"sender","type":"address","indexed":true,"internalType":"address"}],"anonymous":false},{"type":"event","name":"RouterSet","inputs":[{"name":"router","type":"address","indexed":true,"internalType":"address"}],"anonymous":false},{"type":"event","name":"SecondaryAssetOperation","inputs":[{"name":"asset","type":"address","indexed":true,"internalType":"address"},{"name":"user","type":"address","indexed":true,"internalType":"address"},{"name":"amount","type":"uint256","indexed":false,"internalType":"uint256"},{"name":"isDeposit","type":"bool","indexed":false,"internalType":"bool"}],"anonymous":false},{"type":"event","name":"StableWhitelistStatusChanged","inputs":[{"name":"user","type":"address","indexed":true,"internalType":"address"},{"name":"status","type":"bool","indexed":false,"internalType":"bool"}],"anonymous":false},{"type":"event","name":"TreasuryUpdated","inputs":[{"name":"oldTreasury","type":"address","indexed":true,"internalType":"address"},{"name":"newTreasury","type":"address","indexed":true,"internalType":"address"}],"anonymous":false},{"type":"event","name":"Unpaused","inputs":[{"name":"account","type":"address","indexed":false,"internalType":"address"}],"anonymous":false},{"type":"event","name":"Upgraded","inputs":[{"name":"implementation","type":"address","indexed":true,"internalType":"address"}],"anonymous":false},{"type":"event","name":"WithdrawProcessed","inputs":[{"name":"user","type":"address","indexed":true,"internalType":"address"},{"name":"asset","type":"address","indexed":true,"internalType":"address"},{"name":"amount","type":"uint256","indexed":false,"internalType":"uint256"}],"anonymous":false},{"type":"error","name":"AccessControlBadConfirmation","inputs":[]},{"type":"error","name":"AccessControlUnauthorizedAccount","inputs":[{"name":"account","type":"address","internalType":"address"},{"name":"neededRole","type":"bytes32","internalType":"bytes32"}]},{"type":"error","name":"AddressEmptyCode","inputs":[{"name":"target","type":"address","internalType":"address"}]},{"type":"error","name":"ApprovalFailed","inputs":[{"name":"asset","type":"address","internalType":"address"},{"name":"spender","type":"address","internalType":"address"}]},{"type":"error","name":"ArrayLengthMismatch","inputs":[]},{"type":"error","name":"AssetAlreadySupported","inputs":[{"name":"asset","type":"address","internalType":"address"}]},{"type":"error","name":"AssetNotSupported","inputs":[{"name":"asset","type":"address","internalType":"address"}]},{"type":"error","name":"CannotRemovePrimaryAsset","inputs":[]},{"type":"error","name":"DepositFailed","inputs":[{"name":"reason","type":"string","internalType":"string"}]},{"type":"error","name":"ERC1967InvalidImplementation","inputs":[{"name":"implementation","type":"address","internalType":"address"}]},{"type":"error","name":"ERC1967NonPayable","inputs":[]},{"type":"error","name":"EmergencyDelayNotPassed","inputs":[]},{"type":"error","name":"EmergencyModeEnabled","inputs":[{"name":"timestamp","type":"uint256","internalType":"uint256"}]},{"type":"error","name":"EmergencyModeNotEnabled","inputs":[]},{"type":"error","name":"EnforcedPause","inputs":[]},{"type":"error","name":"ExpectedPause","inputs":[]},{"type":"error","name":"FailedCall","inputs":[]},{"type":"error","name":"InsufficientBalance","inputs":[{"name":"requested","type":"uint256","internalType":"uint256"},{"name":"available","type":"uint256","internalType":"uint256"}]},{"type":"error","name":"InsufficientVaultBalance","inputs":[]},{"type":"error","name":"InvalidAddress","inputs":[{"name":"addr","type":"address","internalType":"address"}]},{"type":"error","name":"InvalidAmount","inputs":[]},{"type":"error","name":"InvalidChainPreimage","inputs":[]},{"type":"error","name":"InvalidGasPriceConfig","inputs":[]},{"type":"error","name":"InvalidHMACBinding","inputs":[]},{"type":"error","name":"InvalidInitialization","inputs":[]},{"type":"error","name":"NoYieldToClaim","inputs":[]},{"type":"error","name":"NonZeroBalance","inputs":[{"name":"asset","type":"address","internalType":"address"},{"name":"balance","type":"uint256","internalType":"uint256"}]},{"type":"error","name":"NotInitialized","inputs":[]},{"type":"error","name":"NotInitializing","inputs":[]},{"type":"error","name":"PrimaryAssetOperationFailed","inputs":[{"name":"reason","type":"string","internalType":"string"}]},{"type":"error","name":"ReentrancyGuardReentrantCall","inputs":[]},{"type":"error","name":"SafeERC20FailedOperation","inputs":[{"name":"token","type":"address","internalType":"address"}]},{"type":"error","name":"SecondaryAssetOperationFailed","inputs":[{"name":"reason","type":"string","internalType":"string"}]},{"type":"error","name":"UUPSUnauthorizedCallContext","inputs":[]},{"type":"error","name":"UUPSUnsupportedProxiableUUID","inputs":[{"name":"slot","type":"bytes32","internalType":"bytes32"}]},{"type":"error","name":"UnauthenticatedUpgradeBlocked","inputs":[]},{"type":"error","name":"UnauthorizedCaller","inputs":[{"name":"caller","type":"address","internalType":"address"}]},{"type":"error","name":"UnsupportedAsset","inputs":[{"name":"asset","type":"address","internalType":"address"}]},{"type":"error","name":"WithdrawFailed","inputs":[{"name":"reason","type":"string","internalType":"string"}]}],"bytecode":{"object":"0x60a06040523060805234801562000014575f80fd5b5060017f9b779b17422d0df92223018b32b4d1fa46e071723d6817e2486d003becc55f00556200004362000049565b620000fd565b7ff0c57e16840df040f15088dc2f81fe391c3923bec73e23a9662efc9c229c6a00805468010000000000000000900460ff16156200009a5760405163f92ee8a960e01b815260040160405180910390fd5b80546001600160401b0390811614620000fa5780546001600160401b0319166001600160401b0390811782556040519081527fc7f505b2f371ae2175ee4913f4499e1f2633a7b5936321eed1cdaeb6115181d29060200160405180910390a15b50565b608051613180620001245f395f818161215b0152818161218401526122db01526131805ff3fe6080604052600436106102bf575f3560e01c806375f620ac1161016f578063c9b1f5fc116100d8578063eb75dc3111610092578063f86501241161006d578063f8650124146108ae578063f887ea40146108cd578063f901dc33146108eb578063fa37273c1461090a575f80fd5b8063eb75dc311461085c578063ef9525681461087b578063f0f442601461088f575f80fd5b8063c9b1f5fc146107c2578063cd905dff146107d5578063d0e8dcff146107e9578063d547741f14610808578063d6a52ef414610827578063e5406dbf1461083b575f80fd5b8063a217fddf11610129578063a217fddf146106e0578063a59aa5a6146106f3578063ad3cb1cc14610724578063bd81579e14610761578063bdc631d41461078f578063c5b1c7d0146107ae575f80fd5b806375f620ac146106285780637e9747001461065c57806382944e2d1461067957806383b9010d1461068e5780638456cb59146106ad57806391d14854146106c1575f80fd5b80634f1ef2861161022b57806362adfe7a116101e55780636b98afac116101c05780636b98afac146105b557806370a96066146105d4578063726e50b7146105f357806375b238fc14610608575f80fd5b806362adfe7a1461056357806363967f6c1461058257806368625807146105a1575f80fd5b80634f1ef2861461049457806352d1902d146104a75780635a109d1d146104bb5780635aa40b6b146104da5780635c975abb1461050d5780635ca78bcd14610530575f80fd5b80632d2c55651161027c5780632d2c5565146103be5780632f2ff15d146103dd57806330ca2ca2146103fc57806336568abe1461042a5780633f4ba83a14610449578063464b41581461045d575f80fd5b806301ffc9a7146102c35780630905f560146102f7578063248a9ca31461031057806324d844c41461033d578063297a3e57146103515780632b66398614610372575b5f80fd5b3480156102ce575f80fd5b506102e26102dd366004612ac0565b61093b565b60405190151581526020015b60405180910390f35b348015610302575f80fd5b506007546102e29060ff1681565b34801561031b575f80fd5b5061032f61032a366004612ae7565b610971565b6040519081526020016102ee565b348015610348575f80fd5b5061032f610991565b34801561035c575f80fd5b5061037061036b366004612b12565b610b45565b005b34801561037d575f80fd5b506103a661038c366004612b72565b60086020525f90815260409020546001600160a01b031681565b6040516001600160a01b0390911681526020016102ee565b3480156103c9575f80fd5b506003546103a6906001600160a01b031681565b3480156103e8575f80fd5b506103706103f7366004612b8d565b610e78565b348015610407575f80fd5b506102e2610416366004612b72565b6001546001600160a01b0391821691161490565b348015610435575f80fd5b50610370610444366004612b8d565b610e9a565b348015610454575f80fd5b50610370610ed2565b348015610468575f80fd5b506102e2610477366004612b72565b6001600160a01b03165f9081526004602052604090205460ff1690565b6103706104a2366004612bcf565b610f1a565b3480156104b2575f80fd5b5061032f610f39565b3480156104c6575f80fd5b506103706104d5366004612cd2565b610f54565b3480156104e5575f80fd5b507f458c3c2e0776a3130c85b57ced762bdfbc81bf8b1a5065ff9ffdad7a991486005461032f565b348015610518575f80fd5b505f805160206130eb8339815191525460ff166102e2565b34801561053b575f80fd5b507f458c3c2e0776a3130c85b57ced762bdfbc81bf8b1a5065ff9ffdad7a991486015461032f565b34801561056e575f80fd5b5061037061057d366004612d23565b610ffe565b34801561058d575f80fd5b506001546103a6906001600160a01b031681565b3480156105ac575f80fd5b5060055461032f565b3480156105c0575f80fd5b506002546103a6906001600160a01b031681565b3480156105df575f80fd5b506103706105ee366004612b72565b611109565b3480156105fe575f80fd5b5061032f60065481565b348015610613575f80fd5b5061032f5f8051602061312b83398151915281565b348015610633575f80fd5b50610647610642366004612b72565b61119e565b604080519283529015156020830152016102ee565b348015610667575f80fd5b506001546001600160a01b03166103a6565b348015610684575f80fd5b5061032f610e1081565b348015610699575f80fd5b506009546103a6906001600160a01b031681565b3480156106b8575f80fd5b50610370611283565b3480156106cc575f80fd5b506102e26106db366004612b8d565b6112a2565b3480156106eb575f80fd5b5061032f5f81565b3480156106fe575f80fd5b506107076112d8565b6040805193845260208401929092521515908201526060016102ee565b34801561072f575f80fd5b50610754604051806040016040528060058152602001640352e302e360dc1b81525081565b6040516102ee9190612d71565b34801561076c575f80fd5b506102e261077b366004612b72565b60046020525f908152604090205460ff1681565b34801561079a575f80fd5b506102e26107a9366004612da3565b611382565b3480156107b9575f80fd5b506103706114de565b6103706107d0366004612de1565b611555565b3480156107e0575f80fd5b506102e2611789565b3480156107f4575f80fd5b506102e2610803366004612da3565b6117b7565b348015610813575f80fd5b50610370610822366004612b8d565b6118e7565b348015610832575f80fd5b5061032f611903565b348015610846575f80fd5b5061084f61196d565b6040516102ee9190612e39565b348015610867575f80fd5b506102e2610876366004612e85565b6119cd565b348015610886575f80fd5b50610370611b99565b34801561089a575f80fd5b506103706108a9366004612b72565b611c27565b3480156108b9575f80fd5b506103706108c8366004612b72565b611d3c565b3480156108d8575f80fd5b505f546103a6906001600160a01b031681565b3480156108f6575f80fd5b50610370610905366004612cd2565b611dc7565b348015610915575f80fd5b5061091e611e3d565b6040805193151584529115156020840152908201526060016102ee565b5f6001600160e01b03198216637965db0b60e01b148061096b57506301ffc9a760e01b6001600160e01b03198316145b92915050565b5f9081525f805160206130cb833981519152602052604090206001015490565b5f61099a611e9b565b5f8051602061312b8339815191526109b181611eb6565b6002546001600160a01b03166109da576040516321c4e35760e21b815260040160405180910390fd5b6003546001600160a01b0316610a03576040516321c4e35760e21b815260040160405180910390fd5b6002546040516370a0823160e01b81523060048201526001600160a01b03909116906370a0823190602401602060405180830381865afa158015610a49573d5f803e3d5ffd5b505050506040513d601f19601f82011682018060405250810190610a6d9190612ef3565b91505f8211610a8f5760405163162908e360e11b815260040160405180910390fd5b600354600254610aac916001600160a01b03918216911684611ec0565b6003546002546040516001600160a01b039283169291909116907f91b571fb78ef84d2ab917bcadf1f2c9fbf5c95402d7dfde1be19dfa7477b5f4990610b23908681526040602082018190526016908201527510591b5a5b881554d55053081dda5d1a191c985dd85b60521b606082015260800190565b60405180910390a350610b4260015f8051602061310b83398151915255565b90565b5f610b4e611ef5565b805490915060ff600160401b820416159067ffffffffffffffff165f81158015610b755750825b90505f8267ffffffffffffffff166001148015610b915750303b155b905081158015610b9f575080155b15610bbd5760405163f92ee8a960e01b815260040160405180910390fd5b845467ffffffffffffffff191660011785558315610be757845460ff60401b1916600160401b1785555b6001600160a01b038a16610c335760405162461bcd60e51b815260206004820152600e60248201526d496e76616c696420555344302b2b60901b60448201526064015b60405180910390fd5b6001600160a01b038816610c7a5760405162461bcd60e51b815260206004820152600e60248201526d24b73b30b634b2103937baba32b960911b6044820152606401610c2a565b6001600160a01b038716610cc05760405162461bcd60e51b815260206004820152600d60248201526c24b73b30b634b21030b236b4b760991b6044820152606401610c2a565b610cc8611f1d565b610cd0611f1d565b610cd986611f27565b600180546001600160a01b03808d166001600160a01b031992831617909255600280548c84169083161790555f8054928b1692909116919091178155610d1f9088611f76565b50610d375f8051602061312b83398151915288611f76565b50610d4f5f8051602061312b8339815191525f61201e565b6001600160a01b038a165f81815260046020526040808220805460ff191660019081179091556005805491820181559092527f036b6384b5eca791c62761152d0c79bb0604c104a5fb6f4eb0703f3154bb3db090910180546001600160a01b03191683179055517ffd288a46d080f2a24ab4d47d4231a7ae3a4538d57a6c1c9afe6807e6c949f6ea90610e1e9060208082526022908201527f555344302b2b20636f6e66696775726564206173207072696d61727920617373604082015261195d60f21b606082015260800190565b60405180910390a28315610e6c57845460ff60401b19168555604051600181527fc7f505b2f371ae2175ee4913f4499e1f2633a7b5936321eed1cdaeb6115181d29060200160405180910390a15b50505050505050505050565b610e8182610971565b610e8a81611eb6565b610e948383611f76565b50505050565b6001600160a01b0381163314610ec35760405163334bd91960e11b815260040160405180910390fd5b610ecd828261207e565b505050565b5f8051602061312b833981519152610ee981611eb6565b60075460ff1615610f0f576040516303d3ebcd60e31b8152426004820152602401610c2a565b610f176120f7565b50565b610f22612150565b610f2b826121f4565b610f358282612214565b5050565b5f610f426122d0565b505f805160206130ab83398151915290565b5f8051602061312b833981519152610f6b81611eb6565b836001600160a01b038116610f9e57604051634726455360e11b81526001600160a01b0382166004820152602401610c2a565b60405162461bcd60e51b815260206004820152602f60248201527f4173736574206164646974696f6e206973206e6f7420737570706f727465642060448201526e34b7103a3434b9903b32b939b4b7b760891b6064820152608401610c2a565b5f8051602061312b83398151915261101581611eb6565b6001600160a01b0383166110635760405162461bcd60e51b8152602060048201526015602482015274496e76616c6964206173736574206164647265737360581b6044820152606401610c2a565b6001600160a01b0382166110b25760405162461bcd60e51b8152602060048201526016602482015275496e76616c6964206f7261636c65206164647265737360501b6044820152606401610c2a565b6001600160a01b038381165f8181526008602052604080822080546001600160a01b0319169487169485179055517fc9065e48c4acfd7b02d146dc4f3c53162e1bae95e203fbb6ed45b4ec2ed6525a9190a3505050565b5f8051602061312b83398151915261112081611eb6565b816001600160a01b03811661115357604051634726455360e11b81526001600160a01b0382166004820152602401610c2a565b600980546001600160a01b0319166001600160a01b0385169081179091556040517fc6b438e6a8a59579ce6a4406cbd203b740e0d47b458aae6596339bcd40c40d15905f90a2505050565b6001600160a01b0381165f90815260046020526040812054819060ff166111c957505f928392509050565b6001600160a01b038084165f9081526008602052604090205416806111f357505f93849350915050565b806001600160a01b031663feaf968c6040518163ffffffff1660e01b815260040160a060405180830381865afa92505050801561124d575060408051601f3d908101601f1916820190925261124a91810190612f28565b60015b61125c57505f93849350915050565b5f841361127357505f988998509650505050505050565b5091976001975095505050505050565b5f8051602061312b83398151915261129a81611eb6565b610f17612319565b5f9182525f805160206130cb833981519152602090815260408084206001600160a01b0393909316845291905290205460ff1690565b6001546040516370a0823160e01b81523060048201525f91829182916001600160a01b0316906370a0823190602401602060405180830381865afa158015611322573d5f803e3d5ffd5b505050506040513d601f19601f820116820180604052508101906113469190612ef3565b60055461135590600190612f88565b5f805160206130eb8339815191525460ff16158015611377575060075460ff16155b925092509250909192565b5f61138b611e9b565b5f546001600160a01b031633146113b75760405163d86ad9cf60e01b8152336004820152602401610c2a565b6113bf612361565b815f036113df5760405163162908e360e11b815260040160405180910390fd5b60075460ff1615611405576040516303d3ebcd60e31b8152426004820152602401610c2a565b6001546001600160a01b0384811691161461143e5760405163ee84f40b60e01b81526001600160a01b0384166004820152602401610c2a565b306001600160a01b0316637e9747006040518163ffffffff1660e01b8152600401602060405180830381865afa15801561147a573d5f803e3d5ffd5b505050506040513d601f19601f8201168201806040525081019061149e9190612f9b565b6001600160a01b0316836001600160a01b0316036114be575060016114c1565b505f5b6114d760015f8051602061310b83398151915255565b9392505050565b5f8051602061312b8339815191526114f581611eb6565b6114fd612361565b6007805460ff19166001179055611512612319565b42600681905560408051918252600160208301527f7208c975490cec9c100544baa60b8ffe9483c88f4ef7bbd984b40cf79a3f611791015b60405180910390a150565b7f458c3c2e0776a3130c85b57ced762bdfbc81bf8b1a5065ff9ffdad7a99148600805460408051602081018590526002910160408051601f19818403018152908290526115a191612fb6565b602060405180830381855afa1580156115bc573d5f803e3d5ffd5b5050506040513d601f19601f820116820180604052508101906115df9190612ef3565b146115fd57604051631c2ae9cd60e31b815260040160405180910390fd5b5f816001015486338787604051611615929190612fd1565b60405190819003812061164d949392916020019384526001600160a01b03928316602085015291166040830152606082015260800190565b60408051601f198184030181528282526020830186905292505f91611682910160405160208183030381529060405283612391565b905080483a10156116a657604051636988e22760e11b815260040160405180910390fd5b5f6116b1483a612f88565b90508061ffff808216908416146116db57604051630fc7c3b560e01b815260040160405180910390fd5b600180870154888855906116f0908290612fe0565b60018801556040516001600160a01b038c169082907f803105f55054d0c14072ed58207771670d15113c9d8f5e75bcf6605d17311a5f905f90a3611734600161268e565b6117738b8b8b8080601f0160208091040260200160405190810160405280939291908181526020018383808284375f92019190915250610f1a92505050565b61177c5f61268e565b5050505050505050505050565b5f6117a25f805160206130eb8339815191525460ff1690565b1580156117b2575060075460ff16155b905090565b5f6117c0611e9b565b6009546001600160a01b031633146117ed5760405163d86ad9cf60e01b8152336004820152602401610c2a565b6117f5612361565b815f036118155760405163162908e360e11b815260040160405180910390fd5b60075460ff161561183b576040516303d3ebcd60e31b8152426004820152602401610c2a565b6001546001600160a01b038481169116146118745760405163ee84f40b60e01b81526001600160a01b0384166004820152602401610c2a565b60015461188b906001600160a01b03168584611ec0565b604080518381525f60208201526001600160a01b038616917f51e1faf377d8e0f71a34b9ed5c587eaf8009919f820117fe196b30ebc39049e3910160405180910390a25060016114d760015f8051602061310b83398151915255565b6118f082610971565b6118f981611eb6565b610e94838361207e565b6001546040516370a0823160e01b81523060048201525f916001600160a01b0316906370a0823190602401602060405180830381865afa158015611949573d5f803e3d5ffd5b505050506040513d601f19601f820116820180604052508101906117b29190612ef3565b606060058054806020026020016040519081016040528092919081815260200182805480156119c357602002820191905f5260205f20905b81546001600160a01b031681526001909101906020018083116119a5575b5050505050905090565b5f6119d6611e9b565b5f8051602061312b8339815191526119ed81611eb6565b60075460ff16611a105760405163b3ed4d6360e01b815260040160405180910390fd5b610e10600654611a209190612fe0565b421015611a40576040516302aee1fb60e21b815260040160405180910390fd5b845f03611a605760405163162908e360e11b815260040160405180910390fd5b6040516370a0823160e01b81523060048201525f906001600160a01b038916906370a0823190602401602060405180830381865afa158015611aa4573d5f803e3d5ffd5b505050506040513d601f19601f82011682018060405250810190611ac89190612ef3565b90505f818711611ad85786611ada565b815b6001549091506001600160a01b03908116908a1603611b0957600154611b09906001600160a01b0316806126b6565b611b1d6001600160a01b038a168983611ec0565b42600681905550876001600160a01b0316896001600160a01b03167f91b571fb78ef84d2ab917bcadf1f2c9fbf5c95402d7dfde1be19dfa7477b5f49838989604051611b6b93929190612ff3565b60405180910390a360019350505050611b9060015f8051602061310b83398151915255565b95945050505050565b5f8051602061312b833981519152611bb081611eb6565b610e10600654611bc09190612fe0565b421015611be0576040516302aee1fb60e21b815260040160405180910390fd5b611be86120f7565b6007805460ff19169055604080514281525f60208201527f7208c975490cec9c100544baa60b8ffe9483c88f4ef7bbd984b40cf79a3f6117910161154a565b5f8051602061312b833981519152611c3e81611eb6565b6001600160a01b038216611c945760405162461bcd60e51b815260206004820152601860248201527f5a65726f2061646472657373206e6f7420616c6c6f77656400000000000000006044820152606401610c2a565b6003546001600160a01b0390811690831603611cea5760405162461bcd60e51b815260206004820152601560248201527453616d65207472656173757279206164647265737360581b6044820152606401610c2a565b600380546001600160a01b038481166001600160a01b0319831681179093556040519116919082907f4ab5be82436d353e61ca18726e984e561f5c1cc7c6d38b29d2553c790434705a905f90a3505050565b5f8051602061312b833981519152611d5381611eb6565b60095460405163095ea7b360e01b81526001600160a01b0391821660048201525f1960248201529083169063095ea7b3906044016020604051808303815f875af1158015611da3573d5f803e3d5ffd5b505050506040513d601f19601f82011682018060405250810190610ecd9190613028565b5f8051602061312b833981519152611dde81611eb6565b60405162461bcd60e51b815260206004820152602e60248201527f41737365742072656d6f76616c206973206e6f7420737570706f72746564206960448201526d37103a3434b9903b32b939b4b7b760911b6064820152608401610c2a565b5f805f80610e10600654611e519190612fe0565b90505f81421015611e6b57611e664283612f88565b611e6d565b5f5b60075490915060ff16611e8e5f805160206130eb8339815191525460ff1690565b9096909550909350915050565b611ea3612794565b60025f8051602061310b83398151915255565b610f1781336127cb565b611ecd8383836001612804565b610ecd57604051635274afe760e01b81526001600160a01b0384166004820152602401610c2a565b5f807ff0c57e16840df040f15088dc2f81fe391c3923bec73e23a9662efc9c229c6a0061096b565b611f25612866565b565b611f2f612866565b7f458c3c2e0776a3130c85b57ced762bdfbc81bf8b1a5065ff9ffdad7a99148600555f7f458c3c2e0776a3130c85b57ced762bdfbc81bf8b1a5065ff9ffdad7a9914860155565b5f5f805160206130cb833981519152611f8f84846112a2565b61200e575f848152602082815260408083206001600160a01b03871684529091529020805460ff19166001179055611fc43390565b6001600160a01b0316836001600160a01b0316857f2f8788117e7eff1d82e926ec794901d17c78024a50270940304540a733656f0d60405160405180910390a4600191505061096b565b5f91505061096b565b5092915050565b5f805160206130cb8339815191525f61203684610971565b5f85815260208490526040808220600101869055519192508491839187917fbd79b86ffe0ab8e8776151514217cd7cacd52c909f66475c3af44e129f0b00ff9190a450505050565b5f5f805160206130cb83398151915261209784846112a2565b1561200e575f848152602082815260408083206001600160a01b0387168085529252808320805460ff1916905551339287917ff6391f5c32d9c69d2a47ea670b442974b53935d1edc7fd64eb21e047a839171b9190a4600191505061096b565b6120ff61288b565b5f805160206130eb833981519152805460ff191681557f5db9ee0a495bf2e6ff9c91a7834c1ba4fdd244a5e8aa4e537bd38aeae4b073aa335b6040516001600160a01b03909116815260200161154a565b306001600160a01b037f00000000000000000000000000000000000000000000000000000000000000001614806121d657507f00000000000000000000000000000000000000000000000000000000000000006001600160a01b03166121ca5f805160206130ab833981519152546001600160a01b031690565b6001600160a01b031614155b15611f255760405163703e46dd60e11b815260040160405180910390fd5b5f8051602061312b83398151915261220b81611eb6565b610f35826128ba565b816001600160a01b03166352d1902d6040518163ffffffff1660e01b8152600401602060405180830381865afa92505050801561226e575060408051601f3d908101601f1916820190925261226b91810190612ef3565b60015b61229657604051634c9c8ce360e01b81526001600160a01b0383166004820152602401610c2a565b5f805160206130ab83398151915281146122c657604051632a87526960e21b815260048101829052602401610c2a565b610ecd83836128f9565b306001600160a01b037f00000000000000000000000000000000000000000000000000000000000000001614611f255760405163703e46dd60e11b815260040160405180910390fd5b612321612361565b5f805160206130eb833981519152805460ff191660011781557f62e78cea01bee320cd4e420270b5ea74000d11b0c9f74754ebdbfc544b05a25833612138565b5f805160206130eb8339815191525460ff1615611f255760405163d93c066560e01b815260040160405180910390fd5b604080518181526060810182525f91829190602082018180368337019050509050604084511115612465575f6002856040516123cd9190612fb6565b602060405180830381855afa1580156123e8573d5f803e3d5ffd5b5050506040513d601f19601f8201168201806040525081019061240b9190612ef3565b90505f5b602081101561245e5781816020811061242a5761242a613047565b1a60f81b83828151811061244057612440613047565b60200101906001600160f81b03191690815f1a90535060010161240f565b50506124bf565b5f5b84518110156124bd5784818151811061248257612482613047565b602001015160f81c60f81b82828151811061249f5761249f613047565b60200101906001600160f81b03191690815f1a905350600101612467565b505b604080518181526060810182525f916020820181803683375050604080518181526060810182529293505f9291506020820181803683370190505090505f5b60408110156125a557603660f81b84828151811061251e5761251e613047565b602001015160f81c60f81b1883828151811061253c5761253c613047565b60200101906001600160f81b03191690815f1a905350605c60f81b84828151811061256957612569613047565b602001015160f81c60f81b1882828151811061258757612587613047565b60200101906001600160f81b03191690815f1a9053506001016124fe565b505f600283876040516020016125bc92919061305b565b60408051601f19818403018152908290526125d691612fb6565b602060405180830381855afa1580156125f1573d5f803e3d5ffd5b5050506040513d601f19601f820116820180604052508101906126149190612ef3565b90506002828260405160200161262b929190613089565b60408051601f198184030181529082905261264591612fb6565b602060405180830381855afa158015612660573d5f803e3d5ffd5b5050506040513d601f19601f820116820180604052508101906126839190612ef3565b979650505050505050565b7fecfcdcdcfba90e8386d807953ae4b71b24d7ecec12a2e337534b8340eaeeebdf81815d5050565b60405163095ea7b360e01b81526001600160a01b0382811660048301525f602483015283169063095ea7b3906044016020604051808303815f875af192505050801561271f575060408051601f3d908101601f1916820190925261271c91810190613028565b60015b61274f5760405163482b72c160e11b81526001600160a01b03808416600483015282166024820152604401610c2a565b50806001600160a01b0316826001600160a01b03167f97a94ee714dc2c5c1889f6fe8e8909a95e0307c4b272c7df374bf76582099f8760405160405180910390a35050565b6127ad5f60025f8051602061310b83398151915261294e565b15611f2557604051633ee5aeb560e01b815260040160405180910390fd5b6127d582826112a2565b610f355760405163e2517d3f60e01b81526001600160a01b038216600482015260248101839052604401610c2a565b60405163a9059cbb60e01b5f8181526001600160a01b038616600452602485905291602083604481808b5af1925060015f5114831661285a57838315161561284e573d5f823e3d81fd5b5f873b113d1516831692505b60405250949350505050565b61286e612955565b611f2557604051631afcd79f60e31b815260040160405180910390fd5b5f805160206130eb8339815191525460ff16611f2557604051638dfc202b60e01b815260040160405180910390fd5b7fecfcdcdcfba90e8386d807953ae4b71b24d7ecec12a2e337534b8340eaeeebdf5c610f1757604051637143caed60e01b815260040160405180910390fd5b6129028261296e565b6040516001600160a01b038316907fbc7cd75a20ee27fd9adebab32041f755214dbc6bffa90cc0225b39da2e5c2d3b905f90a280511561294657610ecd82826129d1565b610f35612a6a565b5414919050565b5f61295e611ef5565b54600160401b900460ff16919050565b806001600160a01b03163b5f036129a357604051634c9c8ce360e01b81526001600160a01b0382166004820152602401610c2a565b5f805160206130ab83398151915280546001600160a01b0319166001600160a01b0392909216919091179055565b60605f6129de8484612a89565b90508080156129ff57505f3d11806129ff57505f846001600160a01b03163b115b15612a1457612a0c612a9c565b91505061096b565b8015612a3e57604051639996b31560e01b81526001600160a01b0385166004820152602401610c2a565b3d15612a5157612a4c612ab5565b612017565b60405163d6bda27560e01b815260040160405180910390fd5b3415611f255760405163b398979f60e01b815260040160405180910390fd5b5f805f835160208501865af49392505050565b6040513d81523d5f602083013e3d602001810160405290565b6040513d5f823e3d81fd5b5f60208284031215612ad0575f80fd5b81356001600160e01b0319811681146114d7575f80fd5b5f60208284031215612af7575f80fd5b5035919050565b6001600160a01b0381168114610f17575f80fd5b5f805f805f60a08688031215612b26575f80fd5b8535612b3181612afe565b94506020860135612b4181612afe565b93506040860135612b5181612afe565b92506060860135612b6181612afe565b949793965091946080013592915050565b5f60208284031215612b82575f80fd5b81356114d781612afe565b5f8060408385031215612b9e575f80fd5b823591506020830135612bb081612afe565b809150509250929050565b634e487b7160e01b5f52604160045260245ffd5b5f8060408385031215612be0575f80fd5b8235612beb81612afe565b9150602083013567ffffffffffffffff80821115612c07575f80fd5b818501915085601f830112612c1a575f80fd5b813581811115612c2c57612c2c612bbb565b604051601f8201601f19908116603f01168101908382118183101715612c5457612c54612bbb565b81604052828152886020848701011115612c6c575f80fd5b826020860160208301375f6020848301015280955050505050509250929050565b5f8083601f840112612c9d575f80fd5b50813567ffffffffffffffff811115612cb4575f80fd5b602083019150836020828501011115612ccb575f80fd5b9250929050565b5f805f60408486031215612ce4575f80fd5b8335612cef81612afe565b9250602084013567ffffffffffffffff811115612d0a575f80fd5b612d1686828701612c8d565b9497909650939450505050565b5f8060408385031215612d34575f80fd5b8235612d3f81612afe565b91506020830135612bb081612afe565b5f5b83811015612d69578181015183820152602001612d51565b50505f910152565b602081525f8251806020840152612d8f816040850160208701612d4f565b601f01601f19169190910160400192915050565b5f805f60608486031215612db5575f80fd5b8335612dc081612afe565b92506020840135612dd081612afe565b929592945050506040919091013590565b5f805f8060608587031215612df4575f80fd5b8435612dff81612afe565b9350602085013567ffffffffffffffff811115612e1a575f80fd5b612e2687828801612c8d565b9598909750949560400135949350505050565b602080825282518282018190525f9190848201906040850190845b81811015612e795783516001600160a01b031683529284019291840191600101612e54565b50909695505050505050565b5f805f805f60808688031215612e99575f80fd5b8535612ea481612afe565b94506020860135612eb481612afe565b935060408601359250606086013567ffffffffffffffff811115612ed6575f80fd5b612ee288828901612c8d565b969995985093965092949392505050565b5f60208284031215612f03575f80fd5b5051919050565b805169ffffffffffffffffffff81168114612f23575f80fd5b919050565b5f805f805f60a08688031215612f3c575f80fd5b612f4586612f0a565b9450602086015193506040860151925060608601519150612f6860808701612f0a565b90509295509295909350565b634e487b7160e01b5f52601160045260245ffd5b8181038181111561096b5761096b612f74565b5f60208284031215612fab575f80fd5b81516114d781612afe565b5f8251612fc7818460208701612d4f565b9190910192915050565b818382375f9101908152919050565b8082018082111561096b5761096b612f74565b83815260406020820152816040820152818360608301375f818301606090810191909152601f909201601f1916010192915050565b5f60208284031215613038575f80fd5b815180151581146114d7575f80fd5b634e487b7160e01b5f52603260045260245ffd5b5f835161306c818460208801612d4f565b835190830190613080818360208801612d4f565b01949350505050565b5f835161309a818460208801612d4f565b919091019182525060200191905056fe360894a13ba1a3210667c828492db98dca3e2076cc3735a920a3ca505d382bbc02dd7bc7dec4dceedda775e58dd541e08a116c6c53815c0bd028192f7b626800cd5ed15c6e187e77e9aee88184c21f4f2182ab5827cb3b7e07fbedcd63f033009b779b17422d0df92223018b32b4d1fa46e071723d6817e2486d003becc55f00a49807205ce4d355092ef5a8a18f56e8913cf4a201fbe287825b095693c21775a26469706673582212207fbecef626743b0ccd37a0b559c999b7e67c9fdaa3ca150850dd92c07ac28c4364736f6c63430008180033","linkReferences":{}},"methodIdentifiers":{"ADMIN_ROLE()":"75b238fc","DEFAULT_ADMIN_ROLE()":"a217fddf","EMERGENCY_DELAY()":"82944e2d","TREASURY()":"2d2c5565","UPGRADE_INTERFACE_VERSION()":"ad3cb1cc","USD0PP()":"63967f6c","USUAL()":"6b98afac","WS(address)":"70a96066","addAsset(address,string)":"5a109d1d","assetOracles(address)":"2b663986","disableEmergencyMode()":"ef952568","emergencyMode()":"0905f560","enableEmergencyMode()":"c5b1c7d0","getChainPosition()":"5ca78bcd","getCurrentCommitment()":"5aa40b6b","getEmergencyStatus()":"fa37273c","getOraclePrice(address)":"75f620ac","getPrimaryAsset()":"7e974700","getRoleAdmin(bytes32)":"248a9ca3","getSupportedAssets()":"e5406dbf","getSupportedAssetsCount()":"68625807","getUSD0PPBalance()":"d6a52ef4","getVaultStats()":"a59aa5a6","grantRole(bytes32,address)":"2f2ff15d","handleDeposit(address,address,uint256)":"bdc631d4","handleWithdraw(address,address,uint256)":"d0e8dcff","hasRole(bytes32,address)":"91d14854","initialize(address,address,address,address,bytes32)":"297a3e57","isAssetSupported(address)":"464b4158","isOperational()":"cd905dff","isPrimaryAsset(address)":"30ca2ca2","lastEmergencyAction()":"726e50b7","pause()":"8456cb59","paused()":"5c975abb","proxiableUUID()":"52d1902d","removeAsset(address,string)":"f901dc33","renounceRole(bytes32,address)":"36568abe","revokeRole(bytes32,address)":"d547741f","router()":"f887ea40","setAssetOracle(address,address)":"62adfe7a","setTreasury(address)":"f0f44260","setupInitialApproval(address)":"f8650124","supportedAssets(address)":"bd81579e","supportsInterface(bytes4)":"01ffc9a7","unpause()":"3f4ba83a","upgradeToAndCall(address,bytes)":"4f1ef286","upgradeToAndCallAuth(address,bytes,bytes32)":"c9b1f5fc","withdrawAllUSUAL()":"24d844c4","withdrawEmergency(address,address,uint256,string)":"eb75dc31","ws()":"83b9010d"},"id":49}